{
  "contractName": "SupplyChain",
  "abi": [
    {
      "anonymous": false,
      "inputs": [
        {
          "indexed": false,
          "internalType": "uint256",
          "name": "sku",
          "type": "uint256"
        }
      ],
      "name": "ForSale",
      "type": "event"
    },
    {
      "anonymous": false,
      "inputs": [
        {
          "indexed": false,
          "internalType": "uint256",
          "name": "sku",
          "type": "uint256"
        },
        {
          "indexed": false,
          "internalType": "string",
          "name": "name",
          "type": "string"
        },
        {
          "indexed": false,
          "internalType": "address",
          "name": "owner",
          "type": "address"
        }
      ],
      "name": "ProductCreated",
      "type": "event"
    },
    {
      "anonymous": false,
      "inputs": [
        {
          "indexed": false,
          "internalType": "uint256",
          "name": "sku",
          "type": "uint256"
        }
      ],
      "name": "Received",
      "type": "event"
    },
    {
      "anonymous": false,
      "inputs": [
        {
          "indexed": false,
          "internalType": "uint256",
          "name": "sku",
          "type": "uint256"
        }
      ],
      "name": "Shipped",
      "type": "event"
    },
    {
      "anonymous": false,
      "inputs": [
        {
          "indexed": false,
          "internalType": "uint256",
          "name": "sku",
          "type": "uint256"
        }
      ],
      "name": "Sold",
      "type": "event"
    },
    {
      "inputs": [],
      "name": "productCounter",
      "outputs": [
        {
          "internalType": "uint256",
          "name": "",
          "type": "uint256"
        }
      ],
      "stateMutability": "view",
      "type": "function",
      "constant": true
    },
    {
      "inputs": [
        {
          "internalType": "uint256",
          "name": "",
          "type": "uint256"
        }
      ],
      "name": "products",
      "outputs": [
        {
          "internalType": "uint256",
          "name": "sku",
          "type": "uint256"
        },
        {
          "internalType": "string",
          "name": "name",
          "type": "string"
        },
        {
          "internalType": "address",
          "name": "owner",
          "type": "address"
        },
        {
          "internalType": "enum SupplyChain.State",
          "name": "state",
          "type": "uint8"
        }
      ],
      "stateMutability": "view",
      "type": "function",
      "constant": true
    },
    {
      "inputs": [
        {
          "internalType": "string",
          "name": "_name",
          "type": "string"
        }
      ],
      "name": "createProduct",
      "outputs": [],
      "stateMutability": "nonpayable",
      "type": "function"
    },
    {
      "inputs": [
        {
          "internalType": "uint256",
          "name": "_sku",
          "type": "uint256"
        }
      ],
      "name": "markForSale",
      "outputs": [],
      "stateMutability": "nonpayable",
      "type": "function"
    },
    {
      "inputs": [
        {
          "internalType": "uint256",
          "name": "_sku",
          "type": "uint256"
        },
        {
          "internalType": "address",
          "name": "_to",
          "type": "address"
        }
      ],
      "name": "shipProduct",
      "outputs": [],
      "stateMutability": "nonpayable",
      "type": "function"
    },
    {
      "inputs": [
        {
          "internalType": "uint256",
          "name": "_sku",
          "type": "uint256"
        }
      ],
      "name": "receiveProduct",
      "outputs": [],
      "stateMutability": "nonpayable",
      "type": "function"
    },
    {
      "inputs": [
        {
          "internalType": "uint256",
          "name": "_sku",
          "type": "uint256"
        }
      ],
      "name": "sellProduct",
      "outputs": [],
      "stateMutability": "nonpayable",
      "type": "function"
    },
    {
      "inputs": [
        {
          "internalType": "uint256",
          "name": "_sku",
          "type": "uint256"
        }
      ],
      "name": "fetchProduct",
      "outputs": [
        {
          "internalType": "uint256",
          "name": "",
          "type": "uint256"
        },
        {
          "internalType": "string",
          "name": "",
          "type": "string"
        },
        {
          "internalType": "address",
          "name": "",
          "type": "address"
        },
        {
          "internalType": "enum SupplyChain.State",
          "name": "",
          "type": "uint8"
        }
      ],
      "stateMutability": "view",
      "type": "function",
      "constant": true
    }
  ],
  "bytecode": "0x608060405234801561000f575f80fd5b5061129d8061001d5f395ff3fe608060405234801561000f575f80fd5b5060043610610086575f3560e01c80631f16653b116100595780631f16653b1461011157806329d783281461012f578063492deb151461014b5780637acc0b201461016757610086565b806302ec06be1461008a5780630cb28a53146100a65780630e8336dd146100d95780631851de60146100f5575b5f80fd5b6100a4600480360381019061009f9190610b73565b61019a565b005b6100c060048036038101906100bb9190610bed565b6102e2565b6040516100d09493929190610d53565b60405180910390f35b6100f360048036038101906100ee9190610dc7565b610452565b005b61010f600480360381019061010a9190610bed565b6105bf565b005b6101196106d8565b6040516101269190610e05565b60405180910390f35b61014960048036038101906101449190610bed565b6106dd565b005b61016560048036038101906101609190610bed565b61082e565b005b610181600480360381019061017c9190610bed565b610948565b6040516101919493929190610d53565b60405180910390f35b5f808154809291906101ab90610e4b565b919050555060405180608001604052805f5481526020018281526020013373ffffffffffffffffffffffffffffffffffffffff1681526020015f60048111156101f7576101f6610ce0565b5b81525060015f805481526020019081526020015f205f820151815f01556020820151816001019081610229919061108c565b506040820151816002015f6101000a81548173ffffffffffffffffffffffffffffffffffffffff021916908373ffffffffffffffffffffffffffffffffffffffff16021790555060608201518160020160146101000a81548160ff0219169083600481111561029b5761029a610ce0565b5b02179055509050507faf6ffb6277511513e7d579327cc1fc57f0266df2fb11a60b13487b8c9cd2c3885f5482336040516102d79392919061115b565b60405180910390a150565b5f60605f805f60015f8781526020019081526020015f206040518060800160405290815f820154815260200160018201805461031d90610ebf565b80601f016020809104026020016040519081016040528092919081815260200182805461034990610ebf565b80156103945780601f1061036b57610100808354040283529160200191610394565b820191905f5260205f20905b81548152906001019060200180831161037757829003601f168201915b50505050508152602001600282015f9054906101000a900473ffffffffffffffffffffffffffffffffffffffff1673ffffffffffffffffffffffffffffffffffffffff1673ffffffffffffffffffffffffffffffffffffffff1681526020016002820160149054906101000a900460ff16600481111561041757610416610ce0565b5b600481111561042957610428610ce0565b5b815250509050805f01518160200151826040015183606001519450945094509450509193509193565b813373ffffffffffffffffffffffffffffffffffffffff1660015f8381526020019081526020015f206002015f9054906101000a900473ffffffffffffffffffffffffffffffffffffffff1673ffffffffffffffffffffffffffffffffffffffff16146104f4576040517f08c379a00000000000000000000000000000000000000000000000000000000081526004016104eb906111e1565b60405180910390fd5b8160015f8581526020019081526020015f206002015f6101000a81548173ffffffffffffffffffffffffffffffffffffffff021916908373ffffffffffffffffffffffffffffffffffffffff160217905550600260015f8581526020019081526020015f2060020160146101000a81548160ff0219169083600481111561057e5761057d610ce0565b5b02179055507ff00b9a5725b80c54016f42114f6ed7792d22eecb116011c4afac29c57bef6c95836040516105b29190610e05565b60405180910390a1505050565b803373ffffffffffffffffffffffffffffffffffffffff1660015f8381526020019081526020015f206002015f9054906101000a900473ffffffffffffffffffffffffffffffffffffffff1673ffffffffffffffffffffffffffffffffffffffff1614610661576040517f08c379a0000000000000000000000000000000000000000000000000000000008152600401610658906111e1565b60405180910390fd5b6001805f8481526020019081526020015f2060020160146101000a81548160ff0219169083600481111561069857610697610ce0565b5b02179055507fa96ae0fc3224ebd79eebfe54bd130cc9cb94416cddd1f2386115e00b72532468826040516106cc9190610e05565b60405180910390a15050565b5f5481565b600260048111156106f1576106f0610ce0565b5b60015f8381526020019081526020015f2060020160149054906101000a900460ff16600481111561072557610724610ce0565b5b14610765576040517f08c379a000000000000000000000000000000000000000000000000000000000815260040161075c90611249565b60405180910390fd5b3360015f8381526020019081526020015f206002015f6101000a81548173ffffffffffffffffffffffffffffffffffffffff021916908373ffffffffffffffffffffffffffffffffffffffff160217905550600360015f8381526020019081526020015f2060020160146101000a81548160ff021916908360048111156107ef576107ee610ce0565b5b02179055507fa8142743f8f70a4c26f3691cf4ed59718381fb2f18070ec52be1f1022d855557816040516108239190610e05565b60405180910390a150565b803373ffffffffffffffffffffffffffffffffffffffff1660015f8381526020019081526020015f206002015f9054906101000a900473ffffffffffffffffffffffffffffffffffffffff1673ffffffffffffffffffffffffffffffffffffffff16146108d0576040517f08c379a00000000000000000000000000000000000000000000000000000000081526004016108c7906111e1565b60405180910390fd5b600460015f8481526020019081526020015f2060020160146101000a81548160ff0219169083600481111561090857610907610ce0565b5b02179055507f92f64ca637d023f354075a4be751b169c1a8a9ccb6d33cdd0cb35205439957278260405161093c9190610e05565b60405180910390a15050565b6001602052805f5260405f205f91509050805f01549080600101805461096d90610ebf565b80601f016020809104026020016040519081016040528092919081815260200182805461099990610ebf565b80156109e45780601f106109bb576101008083540402835291602001916109e4565b820191905f5260205f20905b8154815290600101906020018083116109c757829003601f168201915b505050505090806002015f9054906101000a900473ffffffffffffffffffffffffffffffffffffffff16908060020160149054906101000a900460ff16905084565b5f604051905090565b5f80fd5b5f80fd5b5f80fd5b5f80fd5b5f601f19601f8301169050919050565b7f4e487b71000000000000000000000000000000000000000000000000000000005f52604160045260245ffd5b610a8582610a3f565b810181811067ffffffffffffffff82111715610aa457610aa3610a4f565b5b80604052505050565b5f610ab6610a26565b9050610ac28282610a7c565b919050565b5f67ffffffffffffffff821115610ae157610ae0610a4f565b5b610aea82610a3f565b9050602081019050919050565b828183375f83830152505050565b5f610b17610b1284610ac7565b610aad565b905082815260208101848484011115610b3357610b32610a3b565b5b610b3e848285610af7565b509392505050565b5f82601f830112610b5a57610b59610a37565b5b8135610b6a848260208601610b05565b91505092915050565b5f60208284031215610b8857610b87610a2f565b5b5f82013567ffffffffffffffff811115610ba557610ba4610a33565b5b610bb184828501610b46565b91505092915050565b5f819050919050565b610bcc81610bba565b8114610bd6575f80fd5b50565b5f81359050610be781610bc3565b92915050565b5f60208284031215610c0257610c01610a2f565b5b5f610c0f84828501610bd9565b91505092915050565b610c2181610bba565b82525050565b5f81519050919050565b5f82825260208201905092915050565b5f5b83811015610c5e578082015181840152602081019050610c43565b5f8484015250505050565b5f610c7382610c27565b610c7d8185610c31565b9350610c8d818560208601610c41565b610c9681610a3f565b840191505092915050565b5f73ffffffffffffffffffffffffffffffffffffffff82169050919050565b5f610cca82610ca1565b9050919050565b610cda81610cc0565b82525050565b7f4e487b71000000000000000000000000000000000000000000000000000000005f52602160045260245ffd5b60058110610d1e57610d1d610ce0565b5b50565b5f819050610d2e82610d0d565b919050565b5f610d3d82610d21565b9050919050565b610d4d81610d33565b82525050565b5f608082019050610d665f830187610c18565b8181036020830152610d788186610c69565b9050610d876040830185610cd1565b610d946060830184610d44565b95945050505050565b610da681610cc0565b8114610db0575f80fd5b50565b5f81359050610dc181610d9d565b92915050565b5f8060408385031215610ddd57610ddc610a2f565b5b5f610dea85828601610bd9565b9250506020610dfb85828601610db3565b9150509250929050565b5f602082019050610e185f830184610c18565b92915050565b7f4e487b71000000000000000000000000000000000000000000000000000000005f52601160045260245ffd5b5f610e5582610bba565b91507fffffffffffffffffffffffffffffffffffffffffffffffffffffffffffffffff8203610e8757610e86610e1e565b5b600182019050919050565b7f4e487b71000000000000000000000000000000000000000000000000000000005f52602260045260245ffd5b5f6002820490506001821680610ed657607f821691505b602082108103610ee957610ee8610e92565b5b50919050565b5f819050815f5260205f209050919050565b5f6020601f8301049050919050565b5f82821b905092915050565b5f60088302610f4b7fffffffffffffffffffffffffffffffffffffffffffffffffffffffffffffffff82610f10565b610f558683610f10565b95508019841693508086168417925050509392505050565b5f819050919050565b5f610f90610f8b610f8684610bba565b610f6d565b610bba565b9050919050565b5f819050919050565b610fa983610f76565b610fbd610fb582610f97565b848454610f1c565b825550505050565b5f90565b610fd1610fc5565b610fdc818484610fa0565b505050565b5b81811015610fff57610ff45f82610fc9565b600181019050610fe2565b5050565b601f8211156110445761101581610eef565b61101e84610f01565b8101602085101561102d578190505b61104161103985610f01565b830182610fe1565b50505b505050565b5f82821c905092915050565b5f6110645f1984600802611049565b1980831691505092915050565b5f61107c8383611055565b9150826002028217905092915050565b61109582610c27565b67ffffffffffffffff8111156110ae576110ad610a4f565b5b6110b88254610ebf565b6110c3828285611003565b5f60209050601f8311600181146110f4575f84156110e2578287015190505b6110ec8582611071565b865550611153565b601f19841661110286610eef565b5f5b8281101561112957848901518255600182019150602085019450602081019050611104565b868310156111465784890151611142601f891682611055565b8355505b6001600288020188555050505b505050505050565b5f60608201905061116e5f830186610c18565b81810360208301526111808185610c69565b905061118f6040830184610cd1565b949350505050565b7f4e6f742070726f64756374206f776e65720000000000000000000000000000005f82015250565b5f6111cb601183610c31565b91506111d682611197565b602082019050919050565b5f6020820190508181035f8301526111f8816111bf565b9050919050565b7f50726f64756374206e6f742073686970706564000000000000000000000000005f82015250565b5f611233601383610c31565b915061123e826111ff565b602082019050919050565b5f6020820190508181035f83015261126081611227565b905091905056fea2646970667358221220b56d7af37aa7c1c4a27807bb7852a5388f6477504d0fcd019a9cf60b09e60cda64736f6c63430008140033",
  "immutableReferences": {},
  "source": "// SPDX-License-Identifier: MIT\r\npragma solidity ^0.8.20;\r\n\r\ncontract SupplyChain {\r\n    enum State { Produced, ForSale, Shipped, Received, Sold }\r\n\r\n    struct Product {\r\n        uint sku;\r\n        string name;\r\n        address owner;\r\n        State state;\r\n    }\r\n\r\n    uint public productCounter;\r\n    mapping(uint => Product) public products;\r\n\r\n    event ProductCreated(uint sku, string name, address owner);\r\n    event ForSale(uint sku);\r\n    event Shipped(uint sku);\r\n    event Received(uint sku);\r\n    event Sold(uint sku);\r\n\r\n    modifier onlyProductOwner(uint _sku) {\r\n        require(products[_sku].owner == msg.sender, \"Not product owner\");\r\n        _;\r\n    }\r\n\r\n    function createProduct(string memory _name) public {\r\n        productCounter++;\r\n        products[productCounter] = Product({\r\n            sku: productCounter,\r\n            name: _name,\r\n            owner: msg.sender,\r\n            state: State.Produced\r\n        });\r\n        emit ProductCreated(productCounter, _name, msg.sender);\r\n    }\r\n\r\n    function markForSale(uint _sku) public onlyProductOwner(_sku) {\r\n        products[_sku].state = State.ForSale;\r\n        emit ForSale(_sku);\r\n    }\r\n\r\n    function shipProduct(uint _sku, address _to) public onlyProductOwner(_sku) {\r\n        products[_sku].owner = _to;\r\n        products[_sku].state = State.Shipped;\r\n        emit Shipped(_sku);\r\n    }\r\n\r\n    function receiveProduct(uint _sku) public {\r\n        require(products[_sku].state == State.Shipped, \"Product not shipped\");\r\n        products[_sku].owner = msg.sender;\r\n        products[_sku].state = State.Received;\r\n        emit Received(_sku);\r\n    }\r\n\r\n    function sellProduct(uint _sku) public onlyProductOwner(_sku) {\r\n        products[_sku].state = State.Sold;\r\n        emit Sold(_sku);\r\n    }\r\n\r\n    function fetchProduct(uint _sku) public view returns (uint, string memory, address, State) {\r\n        Product memory p = products[_sku];\r\n        return (p.sku, p.name, p.owner, p.state);\r\n    }\r\n}\r\n",
  "sourcePath": "C:\\Users\\Rakesh\\Downloads\\supplychain-dapp\\contracts\\SupplyChain.sol",
  "compiler": {
    "name": "solc",
    "version": "0.8.20+commit.a1b79de6.Emscripten.clang"
  },
  "schemaVersion": "3.4.16",
  "updatedAt": "2025-10-03T06:42:53.575Z",
  "networkType": "ethereum",
  "devdoc": {
    "kind": "dev",
    "methods": {},
    "version": 1
  },
  "userdoc": {
    "kind": "user",
    "methods": {},
    "version": 1
  }
}